:100000000C94300F0C947FA50C94B0A50C94E1A532
:100010000C9412A60C9443A60C9474A60C94A5A65A
:100020000C94D6A60C945D0F0C945D0F0C945D0F90
:100030000C945D0F0C945D0F0C945D0F0C945D0F90
:100040000C945D0F0C94156D0C945D0F0C945D0F6A
:100050000C945D0F0C945D0F0C945D0F0C9407A72E
:100060000C945D0F0C945DA90C9485AA0C945D0F03
:100070000C945D0F0C945D0F0C945D0F0C945D0F50
:100080000C94E86C0C945D0F0C945D0F0C945D0F58
:100090000C9496A90C94C4AA0C945D0F0C945D0F5B
:1000A0000C945D0F0C945D0F0C94BB6C0C945D0F65
:1000B0000C945D0F0C945D0F0C945D0F0C948E6C82
:1000C0000C945D0F0C945D0F0C945D0F0C94CFA9F4
:1000D0000C9403AB0C945D0F0C9408AA0C9442ABE7
:1000E0000C945D0FD5266527B027F92712282B28F9
:1000F00044287428D129A729CE28A428742C742C2C
:10010000FA281329742C142AEA29F92AE92BBF2B7F
:10011000432C192CB72A9E2A6E2A442A5F2B142BB3
:100120008F2B052735272C297729C9270A3F2342FA
:100130000D3F113F2342163F1A3F1E3F4A3FF740F3
:100140001F41234223424741AA402342783FA43F14
:100150005E416F419941C641F041D23FF93F404075
:100160006740584156415A41023F063FE8405C41D2
:100170001D4205A84CCDB2D44EB93836A9020C5058
:10018000B9918688083CA6AAAA2ABE000000803F32
:10019000000000006410B71DC8206E3BAC30D926AB
:1001A0009041DC76F4516B6B5861B24D3C71055057
:1001B0002083B8ED44930FF0E8A3D6D68CB361CB7F
:1001C000B0C2649BD4D2D38678E20AA01CF2BDBD33
:1001D00050424D20696D616765206D7573742062B2
:1001E00065206174206C6561737420313020706902
:1001F00078656C7320776964652E002C206D6178BA
:100200002064656E736974793A20002C2070656EE5
:100210002077696474683A200050656E7769647469
:1002200068207465737420004368616E67696E6747
:10023000206261636B20746F206C697665206D6F3E
:1002400064652E0046696C652072656D6F76656425
:100250002E0046696C6520616C7265616479206569
:1002600078697374732E00457865637574696E6779
:1002700020636F6D6D616E643A0053746F72696EC6
:100280006720636F6D6D616E643A006D6D00436849
:10029000616E6765642050656E20776964746820BC
:1002A000746F20004E657720616363656C657261D1
:1002B00074696F6E3A20004E6577206D6178207307
:1002C000706565643A20005047535445504D554C75
:1002D0005449504C4945522C0050475354455053B3
:1002E0005045525245562C0050474D4D50455252A4
:1002F00045562C00504753495A452C0050474E4113
:100300004D452C0020616E642064697265637469D8
:100310006F6E20697320004368616E6765642064B6
:1003200072617720646972656374696F6E206D6FA6
:10033000646520746F206265200020746F20616402
:100340006472657373200057726974696E6720491F
:100350006E7420002900526563616C63756C617472
:100360006564207061676548656967687420696EB7
:100370002073746570732028002900526563616CD6
:1003800063756C6174656420706167655769647436
:100390006820696E20737465707320280029002915
:1003A00020616E642073746570735065724D4D20CA
:1003B0002800526563616C63756C61746564206DBF
:1003C0006D506572537465702028004C6F616465D0
:1003D00064206D6F746F722073746570206D756C1E
:1003E0007469706C6965723A004C6F616465642071
:1003F0006D616368696E65206E616D653A004C6F72
:1004000061646564206D6F746F72207374657073BE
:1004100020706572207265763A004C6F6164656485
:10042000206D6D20706572207265763A004C6F61A8
:10043000646564206D616368696E652068656967DD
:1004400068743A004C6F61646564206D616368692B
:100450006E652077696474683A002069736E27744A
:10046000206120636F6D6D616E6420492072656349
:100470006F676E6973652E00536F7272792C20005E
:10048000436F6D6D616E64206E6F74207061727366
:1004900065642E00436865636B73756D206E6F74C1
:1004A000206D617463686564213A00504F4C41527D
:1004B0004752415048204F4E21007C3C3E5E2B3D30
:1004C0003F2F5B5D3B2C2A225C00080C205F000064
:1004D000000000000000000000000000202020209C
:1004E00020200020000000285050000000000000E4
:1004F000000000002828FC2850FC5050000000207C
:1005000078A8A0603028A8F02000000048A8B050CB
:10051000283454480000000020505078A8A8906C5F
:1005200000000040408000000000000000000004C7
:1005300008101010101010080400004020101010B7
:1005400010101020400000000020A87070A82000AB
:1005500000000000202020F82020200000000000E3
:10056000000000000000004040800000000000F893
:10057000000000000000000000000000000000403B
:1005800000000008101010202040404080000000B3
:10059000708888888888887000000000206020208B
:1005A000202020700000000070888810204080F813
:1005B0000000000070880830080888700000000003
:1005C000103050509078101800000000F88080F033
:1005D0000808887000000000709080F0888888709B
:1005E00000000000F89010202020202000000000D3
:1005F00070888870888888700000000070888888FB
:100600007808487000000000000020000000002072
:100610000000000000000020000000202000000476
:100620000810204020100804000000000000F8001E
:1006300000F80000000000402010080408102040CE
:1006400000000000708888102020002000000000BA
:10065000708898A8A8B8807800000000202030504A
:10066000507848CC00000000F0484870484848F0F6
:100670000000000078888080808088700000000082
:10068000F0484848484848F000000000F8485070DA
:10069000504048F800000000F8485070504040E0DA
:1006A00000000000384880809C884830000000002E
:1006B000CC484878484848CC00000000F82020206A
:1006C000202020F8000000007C1010101010109066
:1006D000E0000000EC485060505048EC0000000082
:1006E000E0404040404044FC00000000D8D8D8D84A
:1006F000A8A8A8A800000000DC486868585848E886
:1007000000000000708888888888887000000000D9
:10071000F0484870404040E0000000007088888841
:1007200088E8987018000000F0484870504848EC7D
:100730000000000078888060100888F00000000049
:10074000F8A820202020207000000000CC48484855
:100750004848483000000000CC4848505030202025
:1007600000000000A8A8A8705050505000000000E1
:10077000D8505020205050D800000000D8505020B1
:100780002020207000000000F8901020204048F841
:1007900000000038202020202020202038000040A9
:1007A00040402020101010080000007010101010A1
:1007B0001010101070000020500000000000000019
:1007C00000000000000000000000000000FC00200D
:1007D00000000000000000000000000000000030E9
:1007E0004838483C00000000C0404070484848700D
:1007F00000000000000000384840403800000000C1
:10080000180808384848483C000000000000003044
:1008100048784038000000001C20207820202078F4
:10082000000000000000003C4830407844380000E0
:10083000C0404070484848EC0000000020000060C4
:100840002020207000000000100000301010101058
:1008500010E00000C040405C507048EC0000000018
:10086000E0202020202020F800000000000000F000
:10087000A8A8A8A800000000000000F0484848EC24
:100880000000000000000030484848300000000030
:10089000000000F04848487040E0000000000038C8
:1008A00048484838081C0000000000D8604040E07C
:1008B00000000000000000784030087800000000D0
:1008C000002020702020201800000000000000D828
:1008D0004848483C00000000000000EC4850302030
:1008E00000000000000000A8A870505000000000A8
:1008F000000000D8502050D800000000000000EC9C
:100900004850302020C000000000007810202078DF
:1009100000000018101010201010101018001010F7
:100920001010101010101010101000602020201057
:1009300020202020600040A41800000000000000DB
:1009400000001010205F0000000000000000000008
:100950000000000000000000000000000000000097
:100960000000000000000000000007000F800F8062
:100970000F800F800F8007000700000000000700B5
:1009800007000700000000000E380E380E380E3841
:100990000630000000000000000000000000000021
:1009A00000000000000000000C300C300C307FFE16
:1009B0007FFE0C300C300C300C307FFE7FFE0C3094
:1009C0000C300C3000000000024002400FF81FF80D
:1009D0001A401A401FF00FF8025802581FF81FF073
:1009E0000240024000000000000000000E100E3027
:1009F0000E7000E001C0038007000E700C700870DC
:100A0000000000000000000000000F0019801980A5
:100A100019800F000F080F9819F818F018E019F056
:100A20000F9800000000000000000700070007000A
:100A30000E000000000000000000000000000000A8
:100A40000000000000000000000000F001C0038072
:100A500007000E000E000E000E000700038001C00C
:100A600000F000000000000000000F00038001C043
:100A700000E0007000700070007000E001C00380B2
:100A80000F000000000000000000018011880990A4
:100A900007E007E03FFC3FFC07E007E00990118812
:100AA0000180000000000000000000000000018044
:100AB000018001800FF00FF00180018001800000B3
:100AC0000000000000000000000000000000000026
:100AD0000000000000000000000000000700070008
:100AE00007000E00000000000000000000000000F1
:100AF000000000001FF81FF80000000000000000C8
:100B000000000000000000000000000000000000E5
:100B100000000000000000000000000007000700C7
:100B20000700000000000000000000020006000EA8
:100B3000001C0038007000E001C0038007000E00B8
:100B40001C0000000000000000000FF01C381C78A2
:100B50001CF81CF81DB81DB81F381F381E381C386B
:100B60000FF0000000000000000001800180038001
:100B70001F801F8003800380038003800380038025
:100B80001FF000000000000000000FE01C701C3887
:100B90000038007000E001C0038007000E381C38E8
:100BA0001FF800000000000000000FE01C701C385F
:100BB0000038007003C003C0007000381C381C707F
:100BC0000FE0000000000000000000E001E003E092
:100BD00006E00CE018E01FF81FF800E000E000E07D
:100BE00003F800000000000000001FF81C001C00BB
:100BF0001C001C001FE01FF0007800381C381C701F
:100C00000FE0000000000000000003E007000E00FD
:100C10001C001C001FF01FF81C381C381C381C3826
:100C20000FF000000000000000001FFC1C1C1C1C3A
:100C30001C1C001C0038007000E001C00380038011
:100C4000038000000000000000000FF01C381C387A
:100C50001C381F3807E007E01CF81C381C381C380B
:100C60000FF000000000000000000FF01C381C38DE
:100C70001C381C381FF80FF800380038007000E0EE
:100C800007C000000000000000000000000003801A
:100C900003800380000000000380038003800000C5
:100CA00000000000000000000000000000000380C1
:100CB000038003800000000003800380038007009E
:100CC0000000000000000000007000E001C0038090
:100CD00007000E001C001C000E000700038001C06E
:100CE00000E00070000000000000000000000000B4
:100CF0003FFC3FFC000000003FFC3FFC0000000008
:100D000000000000000000001C000E00070003802F
:100D100001C000E00070007000E001C00380070027
:100D20000E001C000000000003C00FF01E781838F1
:100D30000038007000E001C001C00000000001C0E8
:100D400001C001C0000000000FF81C1C1C1C1C1C72
:100D50001C1C1CFC1CFC1CFC1CFC1C001C001C00A7
:100D60001FF007F800000000000003C007E00E704D
:100D70001C381C381C381C381FF81C381C381C3810
:100D80001C3800000000000000001FF00E380E3874
:100D90000E380E380FF00FF00E380E380E380E38B1
:100DA0001FF0000000000000000007F00E381C38A3
:100DB0001C001C001C001C001C001C001C380E38F1
:100DC00007F000000000000000001FE00E700E3869
:100DD0000E380E380E380E380E380E380E380E70AB
:100DE0001FE000000000000000001FF80E180E08B1
:100DF0000E000E300FF00FF00E300E000E080E1821
:100E00001FF800000000000000001FF80E180E0878
:100E10000E000E300FF00FF00E300E000E000E0020
:100E20001F00000000000000000007F00E381C3812
:100E30001C381C001C001C001CF81C381C380E3808
:100E400007F800000000000000001C701C701C70FF
:100E50001C701C701FF01FF01C701C701C701C702C
:100E60001C7000000000000000000FE00380038001
:100E7000038003800380038003800380038003805A
:100E80000FE0000000000000000001FC0070007096
:100E900000700070007000703870387038703870F2
:100EA0000FE000000000000000001E380E380E7039
:100EB0000EE00FC00F800F800FC00EE00E700E38D6
:100EC0001E3800000000000000001F000E000E0091
:100ED0000E000E000E000E000E000E080E180E384A
:100EE0001FF800000000000000001C1C1E3C1F7CBE
:100EF0001FFC1FFC1DDC1C9C1C1C1C1C1C1C1C1C2B
:100F00001C1C00000000000000001C1C1C1C1E1CFF
:100F10001F1C1F9C1DDC1CFC1C7C1C3C1C1C1C1C6A
:100F20001C1C000000000000000003E007F00E3869
:100F30001C1C1C1C1C1C1C1C1C1C1C1C0E3807F024
:100F400003E000000000000000001FF00E380E3823
:100F50000E380E380FF00FF00E000E000E000E00CF
:100F60001F00000000000000000003E00F780E38B2
:100F70001C1C1C1C1C1C1C1C1C7C1CFC0FF80FF8D3
:100F8000003800FC0000000000001FF00E380E3892
:100F90000E380E380FF00FF00E700E380E380E3877
:100FA0001E3800000000000000000FF01C381C3844
:100FB0001C381C000FE007F000381C381C381C38A7
:100FC0000FF000000000000000001FFC19CC11C44D
:100FD00001C001C001C001C001C001C001C001C009
:100FE00007F000000000000000001C701C701C7066
:100FF0001C701C701C701C701C701C701C701C7091
:101000000FE000000000000000001C701C701C704D
:101010001C701C701C701C701C701C700EE007C0D3
:10102000038000000000000000001C1C1C1C1C1C95
:101030001C1C1C1C1C9C1C9C1C9C0FF80FF8077093
:10104000077000000000000000001C701C701C7085
:101050000EE007C00380038007C00EE01C701C7008
:101060001C7000000000000000001C701C701C7050
:101070001C701C700EE007C0038003800380038097
:101080000FE000000000000000001FF81C381838B6
:10109000107000E001C0038007000E081C181C3807
:1010A0001FF8000000000000000007F00700070024
:1010B00007000700070007000700070007000700F8
:1010C00007F00000000000000000100018001C00E5
:1010D0000E000700038001C000E000700038001C13
:1010E0000007000000000000000007F00070007022
:1010F0000070007000700070007000700070007070
:1011000007F0000000000000018003C007E00E703F
:101110001C3800000000000000000000000000007B
:1011200000000000000000000000000000000000BF
:1011300000000000000000000000000000000000AF
:1011400000007FFF7FFF000000001C001C00070064
:101150000700000000000000000000000000000088
:10116000000000000000000000000000000000007F
:1011700000000FE0007000700FF01C701C701C70FD
:101180000FD800000000000000001E000E000E003E
:101190000E000FF00E380E380E380E380E380E389E
:1011A0001BF0000000000000000000000000000034
:1011B00000000FE01C701C701C001C001C701C70D8
:1011C0000FE0000000000000000000F80070007058
:1011D00000700FF01C701C701C701C701C701C7058
:1011E0000FD8000000000000000000000000000018
:1011F00000000FE01C701C701FF01C001C701C70A5
:101200000FE0000000000000000003E0077007701E
:10121000070007001FE01FE00700070007000700A6
:101220001FC00000000000000000000000000000DF
:1012300000000FD81C701C701C701C700FF007F0A1
:1012400000701C700FE0000000001E000E000E0079
:101250000E000EF00F380F380E380E380E380E38DC
:101260001E38000000000000000001C001C001C0E5
:1012700000000FC001C001C001C001C001C001C019
:101280000FF8000000000000000000700070007007
:10129000000003F0007000700070007000700070BB
:1012A0001C700CF007E0000000001E000E000E0095
:1012B0000E000E380E700EE00FC00EE00E700E38ED
:1012C0001E3800000000000000000FC001C001C077
:1012D00001C001C001C001C001C001C001C001C006
:1012E0000FF80000000000000000000000000000F7
:1012F00000001FF81C9C1C9C1C9C1C9C1C9C1C9C87
:101300001C9C000000000000000000000000000025
:1013100000001FE01C701C701C701C701C701C7086
:101320001C70000000000000000000000000000031
:1013300000000FE01C701C701C701C701C701C7076
:101340000FE00000000000000000000000000000AE
:1013500000001BF00E380E380E380E380E380FF025
:101360000E000E001F000000000000000000000042
:1013700000001FB038E038E038E038E038E01FE027
:1013800000E000E001F000000000000000000000AC
:1013900000001EF00FF80F380E000E000E000E00B9
:1013A0001F0000000000000000000000000000001E
:1013B00000000FE01C301C300F8003E01870187024
:1013C0000FE000000000000000000000010003002A
:1013D00007001FF0070007000700070007700770ED
:1013E00003E000000000000000000000000000001A
:1013F00000001C701C701C701C701C701C701C7019
:101400000FD80000000000000000000000000000F5
:1014100000001C701C701C701C701C700EE007C05B
:101420000380000000000000000000000000000039
:1014300000001C1C1C1C1C1C1C9C1C9C0FF8077016
:101440000770000000000000000000000000000025
:1014500000001CE01CE00FC0078007800FC01CE0EC
:101460001CE0000000000000000000000000000080
:1014700000000E380E380E380E380E3807F003E034
:1014800000E001C01F80000000000000000000001C
:1014900000001FE018E011C0038007000E201C6050
:1014A0001FE0000000000000000001F8038003803E
:1014B000038007001C001C000700038003800380DA
:1014C00001F800000000000001C001C001C001C01F
:1014D00001C001C001C001C001C001C001C001C004
:1014E00001C001C00000000000001F8001C001C059
:1014F00001C000E00038003800E001C001C001C0B8
:101500001F8000000000000000001F1C3B9C39DC15
:1015100038F800000000000000000000000000009B
:101520000000000000002032300A0000000000002F
:10153000000000FFFE0001FFFF0003FFFF8001FF2E
:10154000FF600CFFFEF01E0001F83F0001F83F00B5
:1015500001F83F0001F83F0001F83F0001F83F00AB
:1015600001F83F0001F83F0001F83F0001F83F009B
:1015700001F83F0001F83F0001F83F0001F83E008C
:10158000007838000018200000080000000020004B
:101590000000380000183E0000783F0001F83F00CE
:1015A00001F83F0001F83F0001F83F0001F83F005B
:1015B00001F83F0001F83F0001F83F0001F83F004B
:1015C00001F83F0001F83F0001F83F0001F83F003B
:1015D00001F81E0000F00CFFFE6001FFFF0003FF9A
:1015E000FF8001FFFF0000FFFE0000000000000080
:1015F00000000000000000000000000000000000EB
:1016000000000000000000000060000000F000008A
:1016100001F8000001F8000001F8000001F80000E6
:1016200001F8000001F8000001F8000001F80000D6
:1016300001F8000001F8000001F8000001F80000C6
:1016400001F8000001F80000007800000018000018
:10165000000800000000000000000000001800006A
:101660000078000001F8000001F8000001F8000017
:1016700001F8000001F8000001F8000001F8000086
:1016800001F8000001F8000001F8000001F8000076
:1016900001F8000001F8000001F8000000F000006F
:1016A00000600000000000000000000000000000DA
:1016B000000000000000000000000000000000002A
:1016C000000000FFFE0001FFFF0003FFFF8001FF9D
:1016D000FF6000FFFEF0000001F8000001F80000CC
:1016E00001F8000001F8000001F8000001F8000016
:1016F00001F8000001F8000001F8000001F8000006
:1017000001F8000001F8000001F8000001F80000F5
:10171000007801FFFE1803FFFF880FFFFFE027FF9F
:10172000FFC039FFFF003E0000003F0000003F0007
:1017300000003F0000003F0000003F0000003F00AD
:1017400000003F0000003F0000003F0000003F009D
:1017500000003F0000003F0000003F0000003F008D
:1017600000001E0000000CFFFE0001FFFF0003FF51
:10177000FF8001FFFF0000FFFE00000000000000EE
:101780000000000000000000000000FFFE0001FF5C
:10179000FF0003FFFF8001FFFF6000FFFEF000007D
:1017A00001F8000001F8000001F8000001F8000055
:1017B00001F8000001F8000001F8000001F8000045
:1017C00001F8000001F8000001F8000001F8000035
:1017D00001F8000001F80000007801FFFE1803FF87
:1017E000FF880FFFFFE007FFFFC001FFFF180000A9
:1017F0000078000001F8000001F8000001F8000086
:1018000001F8000001F8000001F8000001F80000F4
:1018100001F8000001F8000001F8000001F80000E4
:1018200001F8000001F8000001F8000000F000FFDE
:10183000FE6001FFFF0003FFFF8001FFFF0000FFCC
:10184000FE0000000000000000000000000000009A
:101850000000000000000000000000000000000088
:1018600000600C0000F01E0001F83F0001F83F008E
:1018700001F83F0001F83F0001F83F0001F83F0088
:1018800001F83F0001F83F0001F83F0001F83F0078
:1018900001F83F0001F83F0001F83F0001F83E0069
:1018A000007839FFFE1823FFFF880FFFFFE007FFD6
:1018B000FFC001FFFF1800000078000001F80000E1
:1018C00001F8000001F8000001F8000001F8000034
:1018D00001F8000001F8000001F8000001F8000024
:1018E00001F8000001F8000001F8000001F8000014
:1018F00001F8000000F0000000600000000000009F
:1019000000000000000000000000000000000000D7
:101910000000000000000000000000FFFE0001FFCA
:10192000FF0003FFFF8001FFFF000CFFFE001E0011
:1019300000003F0000003F0000003F0000003F00AB
:1019400000003F0000003F0000003F0000003F009B
:1019500000003F0000003F0000003F0000003F008B
:1019600000003F0000003E00000039FFFE0023FFA2
:10197000FF800FFFFFE007FFFFC001FFFF1800001F
:101980000078000001F8000001F8000001F80000F4
:1019900001F8000001F8000001F8000001F8000063
:1019A00001F8000001F8000001F8000001F8000053
:1019B00001F8000001F8000001F8000000F000FF4D
:1019C000FE6001FFFF0003FFFF8001FFFF0000FF3B
:1019D000FE00000000000000000000000000000009
:1019E000000000FFFE0001FFFF0003FFFF8001FF7A
:1019F000FF000CFFFE001E0000003F0000003F0043
:101A000000003F0000003F0000003F0000003F00DA
:101A100000003F0000003F0000003F0000003F00CA
:101A200000003F0000003F0000003F0000003E00BB
:101A3000000039FFFE0023FFFF800FFFFFE027FFBC
:101A4000FFC039FFFF183E0000783F0001F83F005B
:101A500001F83F0001F83F0001F83F0001F83F00A6
:101A600001F83F0001F83F0001F83F0001F83F0096
:101A700001F83F0001F83F0001F83F0001F83F0086
:101A800001F81E0000F00CFFFE6001FFFF0003FFE5
:101A9000FF8001FFFF0000FFFE00000000000000CB
:101AA0000000000000000000000000FFFE0001FF39
:101AB000FF0003FFFF8001FFFF6000FFFEF000005A
:101AC00001F8000001F8000001F8000001F8000032
:101AD00001F8000001F8000001F8000001F8000022
:101AE00001F8000001F8000001F8000001F8000012
:101AF00001F8000001F80000007800000018000064
:101B000000080000000000000000000000180000B5
:101B10000078000001F8000001F8000001F8000062
:101B200001F8000001F8000001F8000001F80000D1
:101B300001F8000001F8000001F8000001F80000C1
:101B400001F8000001F8000001F8000000F00000BA
:101B50000060000000000000000000000000000025
:101B60000000000000000000000000000000000075
:101B7000000000FFFE0001FFFF0003FFFF8001FFE8
:101B8000FF600CFFFEF01E0001F83F0001F83F006F
:101B900001F83F0001F83F0001F83F0001F83F0065
:101BA00001F83F0001F83F0001F83F0001F83F0055
:101BB00001F83F0001F83F0001F83F0001F83E0046
:101BC000007839FFFE1823FFFF880FFFFFE027FF93
:101BD000FFC039FFFF183E0000783F0001F83F00CA
:101BE00001F83F0001F83F0001F83F0001F83F0015
:101BF00001F83F0001F83F0001F83F0001F83F0005
:101C000001F83F0001F83F0001F83F0001F83F00F4
:101C100001F81E0000F00CFFFE6001FFFF0003FF53
:101C2000FF8001FFFF0000FFFE0000000000000039
:101C30000000000000000000000000FFFE0001FFA7
:101C4000FF0003FFFF8001FFFF600CFFFEF01E009E
:101C500001F83F0001F83F0001F83F0001F83F00A4
:101C600001F83F0001F83F0001F83F0001F83F0094
:101C700001F83F0001F83F0001F83F0001F83F0084
:101C800001F83F0001F83E00007839FFFE1823FFFD
:101C9000FF880FFFFFE007FFFFC001FFFF180000F4
:101CA0000078000001F8000001F8000001F80000D1
:101CB00001F8000001F8000001F8000001F8000040
:101CC00001F8000001F8000001F8000001F8000030
:101CD00001F8000001F8000001F8000000F000FF2A
:101CE000FE6001FFFF0003FFFF8001FFFF0000FF18
:101CF000FE000000000000000000000021002400A1
:101D000027002A002D0030003300010100000401EB
:101D100007010A0100002200250028002B002E00E8
:101D20003100340002010000050108010B01000030
:101D300020002300260029002C002F003200000183
:101D4000000003010601090105050505070508084E
:101D50000808020202020A0A080804040404010135
:101D6000010101010101030303030303030304074A
:101D700007070C0C0C0C0C0C0C0C020202020606E1
:101D80000606060606060B0B0B0B0B0B0B0B0102D4
:101D9000102020080810204010204080020102017D
:101DA0000804020101020408102040808040201035
:101DB000080402018004020180402010080402018E
:101DC00008040201010204081020408001020408F6
:101DD000102040800000090A02080B0C0D070603C2
:101DE00004010000000000000000000000000000EE
:101DF00000000000000000000000000000000000E3
:101E000011100F00000000000000000000000000A2
:101E100000000000000000000000494E46494E4905
:101E200054594E414ECDCCCC3D0AD7233C17B7D1A7
:101E30003877CC2B329595E6241FB14F0A0000204D
:101E4000410000C84200401C4620BCBE4CCA1B0ECC
:101E50005AAEC59D7400F619556DEC6EACACF11917
:101E600011241FBECFEFD1E2DEBFCDBF00E00CBF1B
:101E70001FE0A0E0B2E0E4EDF0E701E00BBF02C03C
:101E800007900D92AA39B107D9F71BBE18E1AAE94C
:101E9000BFE001C01D92A835B107E1F71EE1CEE514
:101EA000DEE104C02297FE010E9418B8C635D107B2
:101EB000C9F70E94CAAD0C945EB80C940000CF9391
:101EC000DF93BC018230910510F462E070E0A091D4
:101ED0005418B0915518ED01E0E0F0E040E050E01A
:101EE00021C0888199818617970769F48A819B812F
:101EF000309719F09383828304C090935518809390
:101F00005418FE0134C06817790738F4411551059B
:101F100019F08417950708F4AC01FE018A819B81B2
:101F20009C01E9012097E9F641155105A9F1CA0183
:101F3000861B970B049708F4BA01E0E0F0E02AC092
:101F40008D919C91119784179507F9F46417750783
:101F500081F412968D919C911397309719F0938389
:101F6000828304C09093551880935418FD013296D3
:101F70004CC0CA01861B970BFD01E80FF91F619346
:101F8000719302978D939C9340C0FD018281938150
:101F90009C01D9011097A1F6809152189091531885
:101FA000892B41F48091E10E9091E20E90935318A9
:101FB000809352184091E30E5091E40E4115510563
:101FC00041F44DB75EB78091DF0E9091E00E481B53
:101FD000590B2091521830915318CA01821B930B50
:101FE0008617970780F0AB014E5F5F4F8417950708
:101FF00050F0420F531F5093531840935218F90159
:102000006193719302C0E0E0F0E0CF01DF91CF91E6
:102010000895CF93DF93009709F450C0EC01229705
:102020001B821A82A0915418B0915518109709F18B
:1020300040E050E0AC17BD0708F1BB83AA83FE0166
:1020400021913191E20FF31FAE17BF0779F48D9103
:102050009C911197280F391F2E5F3F4F398328839A
:1020600012968D919C9113979B838A8341155105FC
:1020700071F4D0935518C093541820C012968D91C6
:102080009C911397AD01009711F0DC01D3CFFA01B9
:10209000D383C28321913191E20FF31FCE17DF0763
:1020A00069F488819981280F391F2E5F3F4FFA010B
:1020B000318320838A819B8193838283DF91CF91B7
:1020C0000895A0E0B0E0E7E6F0E10C942FB8EC0151
:1020D000A880B980CA80DB80A114B104C104D104F6
:1020E00041F484E2A82E89EDB82E8BE5C82E87E056
:1020F000D82EC601B5012DE133EF41E050E00E943A
:10210000FBB727EA31E440E050E00E9487B77B014B
:102110008C01C601B5012DE133EF41E050E00E9492
:10212000FBB7CA01B9012CEE34EF4FEF5FEF0E940D
:1021300087B76E0D7F1D801F911F97FF04C06150F0
:10214000704080409048688379838A839B839B0199
:10215000AC015F77B901CA01CDB7DEB7EAE00C94F4
:102160004BB8AFCF85EE9EE0ACCF6093E50E709399
:10217000E60E8093E70E9093E80E0895A0E0B0E09D
:10218000E4ECF0E10C9429B86C01009721F4CB0148
:1021900096DE6C01BDC08EEF882E8FEF982E8C0CD2
:1021A0009D1C8601060F171F0815190508F4AEC0FF
:1021B000F401A081B181A617B707B0F0A530B10531
:1021C00008F4A6C0CD0104978617970708F4A0C0AD
:1021D0001297A61BB70BF801A193B193D4016D938D
:1021E0007C93CF0116DF94C07B01EA1AFB0AEEEF65
:1021F000FFEFEE0EFF1E36016A0E7B1EC0915418D3
:10220000D091551844245524AA24BB244AC0C6158D
:10221000D705E1F5488159814E155F05B8F1CA012E
:1022200004978E159F05B0F41296A40FB51FF40104
:10223000B183A0832A813B814114510431F0D20142
:1022400013963C932E93129763C0309355182093A6
:1022500054185EC08A819B81F80193838283425027
:1022600050404E195F09518340834114510431F0AD
:10227000D20113961C930E93129704C01093551815
:1022800000935418F4017183608342C0888199815E
:10229000A816B90608F45C012E018A819B819C0175
:1022A000E901209709F0B3CF80915218909153180B
:1022B00086159705E9F4A616B706D0F42091E30E2B
:1022C0003091E40E2115310541F42DB73EB78091D0
:1022D000DF0E9091E00E281B390B02171307B0F4A4
:1022E0001093531800935218D4016D937C9310C02F
:1022F000CB01E5DDEC01009749F0F401408151810B
:10230000B6015FD0C60185DE6E0102C0CC24DD249B
:10231000C601CDB7DEB7E0E10C9445B86627772754
:10232000C8C0FC0188279927E89421912032E9F35D
:10233000293010F02E30C8F32B3239F02D3231F421
:10234000689403C0AED0820F911D219120532A3092
:10235000C8F31EF4909581959F4F08951F93FC013B
:1023600099278827BC01E89411911032E9F31930BC
:1023700010F01E30C8F31B3249F01D3241F468944E
:1023800005C07AD0610F711D811D911D11911053EF
:102390001A30B8F33EF490958095709561957F4F13
:1023A0008F4F9F4F1F910895FB01DC0104C08D9159
:1023B0000190801921F441505040C8F7881B990BB7
:1023C0000895FB01DC0102C001900D924150504084
:1023D000D8F70895FC018191861721F08823D9F759
:1023E000992708953197CF010895FB01DC018D9164
:1023F000019080190110D9F3990B0895FB01DC01BC
:1024000001900D920020E1F70895FB01DC0141509D
:10241000504030F08D910190801919F40020B9F7E7
:10242000881B990B0895FB01DC014150504048F096
:1024300001900D920020C9F701C01D9241505040FB
:10244000E0F70895FB0151915523A9F0BF01DC018C
:102450004D9145174111E1F759F4CD01019000204C
:1024600049F04D9140154111C9F3FB014111EFCFE6
:1024700081E090E001970895592F482F372F262F9C
:10248000660F771F881F991F660F771F881F991F78
:10249000620F731F841F951F660F771F881F991F78
:1024A00008957AE0979F902D879F802D910D11249C
:1024B0000895A0E0B0E0EFE5F2E10C942DB8EC0156
:1024C0005B016115710519F0FB0191838083F9901F
:1024D0008F2D90E00E941CB8892BC9F7FDE2FF16F2
:1024E00021F4F990EE24E39405C02BE2F21609F4EE
:1024F000F990EE248E0101501040C8016AE17EE19E
:1025000043E050E033D1892BF9F48E010E5F1F4F69
:10251000C8016DE17EE145E050E028D1892B19F436
:102520008E01095F1F4FA114B10419F0F501118349
:102530000083E0FC04C070E090E080E813C070E02D
:1025400090E080E86FEF07C1C80162E27EE143E0FE
:1025500050E00CD1892B69F4A114B10429F470E086
:1025600090E080EC6FE7F7C02296F501D183C0833D
:10257000F6CF8824992440E050E060E070E0EF2D31
:10258000E053EA30A0F5F2E0EF2A8E2D90E09C01B6
:1025900028703070E2FE06C0232B79F50894811C68
:1025A000911C2BC0232B19F0089481089108DB01A2
:1025B000CA0112E0880F991FAA1FBB1F1A95D1F7F5
:1025C000480F591F6A1F7B1F440F551F661F771F37
:1025D0004E0F511D611D711D483929E9520729E926
:1025E000620729E1720748F084E0E82A06C0EE3F5E
:1025F00031F4E3FC39C098E0E92AF990C0CFE53323
:1026000011F0E53189F529912D3219F4E0E1EE2A36
:1026100005C02B3219F081E090E003C0299182E0DF
:1026200090E0E22FE053EA3018F0C81BD90B1CC031
:1026300020E030E0FCE020383F075CF4C901880F5F
:10264000991F880F991F280F391F220F331F2E0F34
:10265000311DE991E053EA3068F3E4FE03C03095A0
:1026600021953F4F820E931ECE2CDD24E1FE07C044
:10267000A114B10421F02197F501D183C083CB01CE
:10268000BA010E948BB57B018C01F3E0CF22DD24DF
:1026900023E0C216D10421F417FB109517F9109509
:1026A00057016801C801B70120E030E040E050E088
:1026B0000E94EBB4882309F44AC097FE0DC029E3B9
:1026C000E22E2EE1F22E9094819491089394C0E230
:1026D000D0E000E010E012C091E5E92E9EE1F92E75
:1026E000F6CFF7012591359145915491C601B50179
:1026F0000E9483B65B016C018C1A9D0A8C169D06A4
:1027000084F7D595C7950F5F1F4F0630110529F047
:102710008CEF9FEFE80EF91EF1CFC501D6017C01C9
:102720008D018C2D880F8D2D881F8F3F51F0C60194
:10273000B50120E030E040E050E00E94EBB4882397
:1027400031F482E290E090935718809356187E2DD2
:102750009F2D802F612F272F392F482F562FB901FA
:10276000CA01CDB7DEB7ECE00C9449B8FB01DC013F
:102770004150504088F08D9181341CF08B350CF421
:10278000805E659161341CF06B350CF4605E861BD5
:10279000611171F3990B0895881BFCCF982F8091DC
:1027A0003B0F813049F59430B9F0953030F49130D9
:1027B00059F0923009F0AAC0AAC09530A9F096301D
:1027C00009F0A4C083E208958091B510882311F424
:1027D00080E2089581E208958091FE0E882311F42D
:1027E00085E0089584E008958091E90E882311F42E
:1027F00087E0089588E0089580913B0F8630C9F402
:10280000943009F486C0953030F4923061F0933002
:1028100009F07CC00AC0953021F0963009F076C0EE
:1028200006C089E008958AE0089583E1089582E171
:10283000089580913B0F8430C9F4943009F469C045
:10284000953030F4923061F0933009F05FC00AC0E7
:10285000953021F0963009F059C006C08BE10895FB
:102860008CE108958AE1089589E1089580913B0FF4
:102870008530C1F4943009F44CC0953030F4923076
:1028800059F0933009F042C009C0953019F09630E4
:10289000E9F506C085E1089586E1089588E1089587
:1028A00087E1089580913B0F8330D1F4943051F04B
:1028B000953018F4923051F507C0953039F09630C4
:1028C00029F506C08FE008958CE008958BE0089507
:1028D0008091B410882311F480E1089582E2089574
:1028E00080913B0F873091F4933051F0943018F47D
:1028F000923061F407C0943061F0953039F404C02F
:102900008EE108958FE108958DE10895089582E0A4
:10291000089584E10895AF92BF92CF92DF92EF9233
:10292000FF920F931F936E157F058007910734F474
:102930002E153F054007510764F42CC0E616F70634
:102940000807190794F4A216B306C406D5063CF48A
:1029500023C0A216B306C406D506BCF41FC02A15B0
:102960003B054C055D05C4F41BC06E157F05800753
:10297000910791F42A153B054C055D058CF0A216D4
:10298000B306C406D50644F409C02A153B054C0518
:102990005D0511F484E005C082E003C083E001C05E
:1029A00081E01F910F91FF90EF90DF90CF90BF904B
:1029B000AF900895EF92FF920F931F937B018C01CC
:1029C000662757FD6095762FCB01BA010E948DB521
:1029D0002091A50F3091A60F4091A70F5091A80FFD
:1029E0000E9483B6A80197010E94F2B47B018C017A
:1029F00020E030E040E050E40E947FB687FF03C053
:102A000061E070E004C0C801B7010E945AB5CB0173
:102A10001F910F91FF90EF9008956F927F928F9288
:102A20009F92AF92BF92CF92DF92EF92FF920F935D
:102A30001F93CF93DF937C015B01662757FD609561
:102A4000762FCB01BA010E948DB53B014C010027C6
:102A5000F7FC0095102FC801B7010E948DB57B01CE
:102A60008C01CC24B7FCC094DC2CC601B5010E94BB
:102A70008DB59B01AC01C801B7010E94F2B4A4015D
:102A800093010E9483B69B01AC01C401B3010E9473
:102A900086B47B018C010E945AB5EB01BE018827E8
:102AA00077FD8095982F0E948DB59B01AC01C801E0
:102AB000B7010E9486B420E030E040E05FE30E946E
:102AC0007FB618160CF42196CE01DF91CF911F919D
:102AD0000F91FF90EF90DF90CF90BF90AF909F90BD
:102AE0008F907F906F900895CF92DF92EF92FF9238
:102AF0000F931F93CF93DF93EC016B016881798172
:102B00008A819B812091400F3091410F4091420F6B
:102B10005091430F0E9483B6688379838A839B8395
:102B2000F60160817181828193812091440F3091FF
:102B3000450F4091460F5091470F0E9483B67B018D
:102B40008C01F60160837183828393832091AA12A2
:102B50003091AB12C9018E978A35910580F4288196
:102B600039814A815B81D801C701B0588883998334
:102B7000AA83BB83208331834283538329C0C90145
:102B8000885890408A35910580F488819981AA817E
:102B9000BB81B05888839983AA83BB83F601808167
:102BA0009181A281B381B0580FC0225E30402A3596
:102BB000310570F488819981AA81BB81E882F9820C
:102BC0000A831B83B058F60180839183A283B38369
:102BD000688179818A819B812091AC123091AD12FC
:102BE0004091AE125091AF120E9487B468837983EE
:102BF0008A839B83F6016081718182819381209118
:102C0000B0123091B1124091B2125091B3120E94A1
:102C100087B4F6016083718382839383DF91CF91C0
:102C20001F910F91FF90EF90DF90CF9008952F921A
:102C30003F924F925F926F927F928F929F92AF924C
:102C4000BF92CF92DF92EF92FF920F931F931B01DF
:102C50002C0139014A01E090AD0FF090AE0F0091C8
:102C6000AF0F1091B00FC801B701A80197010E94E2
:102C700087B70E948DB55B016C01C401B301A4014B
:102C800093010E9483B69B01AC01C601B5010E946D
:102C900086B45B016C01C201B101A20191010E94E5
:102CA00083B69B01AC01C601B5010E9487B45B01EC
:102CB0006C01EE0CFF1C001F111FC801B7010E9420
:102CC0008DB59B01AC01C601B5010E94F2B41F9104
:102CD0000F91FF90EF90DF90CF90BF90AF909F90BB
:102CE0008F907F906F905F904F903F902F900895BE
:102CF0000F931F93CF93DF93242F2627A22FB0E0AB
:102D0000AF70B070AA0FBB1FAA0FBB1FC0E9D1E004
:102D1000AC0FBD1FFD010591159125913491E4E0A3
:102D20009695879577956795EA95D1F706271727A2
:102D30002827392742954F70402750E04F70507038
:102D4000440F551F440F551F4C0F5D1FFA0185910D
:102D50009591A591B49144E03695279517950795DF
:102D60004A95D1F7082719272A273B27B801C90117
:102D7000DF91CF911F910F910895CF92DF92EF9243
:102D8000FF920F931F938130910509F02CC26F5F62
:102D90007F4F09F01FC389E291E160E072E00E9479
:102DA000BCB38BE99FE00E942A6A8EE99FE066E04F
:102DB00072E00E94BCB380E391E167E072E00E94A0
:102DC000BCB36091F00E7091F10E882777FD80956D
:102DD000982F2091EA0E3091EB0E442737FD409555
:102DE000542F0E9487B70E948DB57B018C016091A2
:102DF000EC0E7091ED0E8091EE0E9091EF0EA80109
:102E000097010E94F2B46093A50F7093A60F809370
:102E1000A70F9093A80FC801B7012091EC0E309135
:102E2000ED0E4091EE0E5091EF0E0E94F2B47B0138
:102E30008C016093A90F7093AA0F8093AB0F9093AE
:102E4000AC0F60913C0F70913D0F882777FD809506
:102E5000982F0E948DB5A80197010E9483B60E9409
:102E60005AB56093AD0F7093AE0F8093AF0F9093F0
:102E7000B00F60913E0F70913F0F882777FD8095CE
:102E8000982F0E948DB5A80197010E9483B60E94D9
:102E90005AB56093B10F7093B20F8093B30F9093B4
:102EA000B40F87E391E160E172E00E94BCB38EE36E
:102EB00091E162E172E00E94BCB385E491E166E1D8
:102EC00072E00E94BCB38CE491E16EE172E00E947A
:102ED000BCB383E591E161E572E00E94BCB38AE591
:102EE00091E161E572E00E94BCB381E691E161E5A8
:102EF00072E00E94BCB388E691E161E572E00E9455
:102F0000BCB38FE691E160E672E00E94BCB386E755
:102F100091E16AE672E00E94BCB38DE791E161E75E
:102F200072E00E94BCB384E891E169E772E00E941C
:102F3000BCB38BE891E164E872E00E94BCB382E923
:102F400091E16FE671E10E946AB485EC9FE066E072
:102F500072E00E94BCB389E991E16AE872E00E94E4
:102F6000BCB380EA91E16CE872E00E94BCB387EAEE
:102F700091E161E972E00E94BCB38EEA91E165E9FA
:102F800072E00E94BCB385EB91E169E972E00E94B6
:102F9000BCB38CEB91E16DE972E00E94BCB383ECB1
:102FA00091E161EA72E00E94BCB38AEC91E165EACA
:102FB00072E00E94BCB381ED91E169EA72E00E9487
:102FC000BCB388ED91E16DEA72E00E94BCB38FED75
:102FD00091E161EB72E00E94BCB386EE91E165EB9A
:102FE00072E00E94BCB38DEE91E169EB72E00E9449
:102FF000BCB384EF91E16DEB72E00E94BCB38BEF48
:1030000091E161EC72E00E94BCB382E092E165EC78
:1030100072E00E94BCB389E092E169EC72E00E9428
:10302000BCB380E192E16DEC72E00E94BCB387E139
:1030300092E161ED72E00E94BCB38EE192E165ED38
:1030400072E00E94BCB385E292E169ED72E00E94F9
:10305000BCB38CE292E16DED72E00E94BCB383E3FD
:1030600092E161EE72E00E94BCB38AE392E165EE08
:1030700072E00E94BCB381E492E169EE72E00E94CA
:10308000BCB388E492E16DEE72E00E94BCB38FE4C1
:1030900092E161EF72E00E94BCB386E592E165EFD8
:1030A00072E00E94BCB38DE592E169EF72E00E948C
:1030B000BCB384E692E16DEF72E00E94BCB38BE694
:1030C00092E161E073E00E94BCB382E792E165E0C7
:1030D00073E00E94BCB389E792E169E073E00E946B
:1030E000BCB380E892E16DE073E00E94BCB387E876
:1030F00092E161E173E00E94BCB38EE892E165E188
:1031000073E00E94BCB385E992E169E173E00E943B
:10311000BCB38CE992E16DE173E00E94BCB383EA39
:1031200092E161E273E00E94BCB385ED9FE066E04E
:1031300046E250E027E230E008E210E079E2E72ED4
:10314000F12CCC24DD240E9438A08FEF9FE06BE0AF
:103150004CE022E103E1B2E0EB2E0E94D5A181E335
:1031600090E166E072E00E94BCB38BE390E166E020
:1031700072E00E94BCB31092471010924810109257
:103180004B1010924D1082E090E0A0E0B0E08093F0
:103190004E1090934F10A0935010B0935110109276
:1031A000651010926F1010926E1085E89FE090935A
:1031B0006D1080936C101092711089E890E10E945C
:1031C000566D87EB90E161E044E025E004E0A5E086
:1031D000EA2E0E94D46684EE90E161E047E028E0A8
:1031E0000E94D466F7C0892B09F0F4C06F5F7F4F4F
:1031F00009F0F0C089E890E10E94696D8BE390E1ED
:103200000E947CB481E390E10E947CB483EA92E165
:103210000E947CB48CE992E10E947CB485E992E141
:103220000E947CB48EE892E10E947CB487E892E12F
:103230000E947CB480E892E10E947CB489E792E12C
:103240000E947CB482E792E10E947CB48BE692E11A
:103250000E947CB484E692E10E947CB48DE592E108
:103260000E947CB486E592E10E947CB48FE492E1F6
:103270000E947CB488E492E10E947CB481E492E1F3
:103280000E947CB48AE392E10E947CB483E392E1E1
:103290000E947CB48CE292E10E947CB485E292E1CF
:1032A0000E947CB48EE192E10E947CB487E192E1BD
:1032B0000E947CB480E192E10E947CB489E092E1BA
:1032C0000E947CB482E092E10E947CB48BEF91E199
:1032D0000E947CB484EF91E10E947CB48DEE91E178
:1032E0000E947CB486EE91E10E947CB48FED91E166
:1032F0000E947CB488ED91E10E947CB481ED91E163
:103300000E947CB48AEC91E10E947CB483EC91E150
:103310000E947CB48CEB91E10E947CB485EB91E13E
:103320000E947CB48EEA91E10E947CB487EA91E12C
:103330000E947CB480EA91E10E947CB489E991E129
:103340000E947CB485EC9FE00E947CB482E991E10C
:103350000E947CB48BE891E10E947CB484E891E106
:103360000E947CB48DE791E10E947CB486E791E1F4
:103370000E947CB48FE691E10E947CB488E691E1E2
:103380000E947CB481E691E10E947CB48AE591E1DF
:103390000E947CB483E591E10E947CB48CE491E1CD
:1033A0000E947CB485E491E10E947CB48EE391E1BB
:1033B0000E947CB487E391E10E947CB480E391E1B8
:1033C0000E947CB48EE99FE00E947CB489E291E186
:1033D0000E947CB41F910F91FF90EF90DF90CF90EF
:1033E000089580E090E06FEF7FEFC7CC81E090E040
:1033F0006FEF7FEFC2CCCF92DF92EF92FF920F93ED
:103400001F93CF93DF936C01EE24EA94FE2C870187
:10341000C0E0D0E00BC0C601BE010E941CB1482F25
:10342000C801B70165DC7B018C012196F60184811E
:103430009581C817D90778F3A80197012095309591
:1034400040955095B901CA01DF91CF911F910F911D
:10345000FF90EF90DF90CF9008950F931F9384E03B
:1034600090E00E945F0F8C010E9409102DB73EB7BB
:10347000201B310BC9011F910F910895EEDF9C01B4
:103480008091B90F9091BA0F28173907D1F0309376
:10349000BA0F2093B90F85ED97E165E471E10E94C1
:1034A00053B06091B90F7091BA0F85ED97E14AE082
:1034B00050E00E9470AF85ED97E160EA71E10C94F5
:1034C00085B0089585ED97E166E771E10C9485B0CC
:1034D00085ED97E16FE671E10C9485B0AF92BF92F4
:1034E000CF92DF92EF92FF920F931F937B018C019B
:1034F000CA01B9010E9483B65B016C01C801B70122
:10350000A80197010E9483B69B01AC01C601B501D9
:103510000E9486B40E94F0B61F910F91FF90EF9029
:10352000DF90CF90BF90AF9008956F927F928F926F
:103530009F92AF92BF92CF92DF92EF92FF920F9342
:103540001F937B018C0173DB5B016C01A801970168
:10355000C5DF3B014C01E0900E0FF0900F0F009182
:10356000100F1091110FC801B7010E948DB59B017A
:10357000AC01C601B5010E94EBB487FD4AC0809141
:10358000160F9091170FA091180FB091190FE80E18
:10359000F91E0A1F1B1FC801B7010E948DB59B01B0
:1035A000AC01C601B5010E947FB6181694F1E090F7
:1035B000120FF090130F0091140F1091150FC80106
:1035C000B7010E948DB59B01AC01C401B3010E94FB
:1035D000EBB487FD1EC0DD2480911A0F90911B0F64
:1035E000A0911C0FB0911D0FE80EF91E0A1F1B1FA2
:1035F000C801B7010E948DB59B01AC01C401B301A4
:103600000E947FB6181614F4DD24D39481E0D826E6
:1036100001C0DD248D2D1F910F91FF90EF90DF9061
:10362000CF90BF90AF909F908F907F906F900895B4
:10363000AF92BF92CF92DF92EF92FF920F931F93C0
:103640007B018C0159016A016091AD0F7091AE0F41
:103650008091AF0F9091B00F0E948DB5A801970196
:103660000E9486B49B01AC010E9483B67B018C0151
:10367000C601B501A60195010E9483B69B01AC016C
:10368000C801B7010E9487B40E94F0B61F910F9144
:10369000FF90EF90DF90CF90BF90AF900895AF92E2
:1036A000BF92CF92DF92EF92FF920F931F937B0115
:1036B0008C0159016A01A80197010E9483B67B0120
:1036C0008C01C601B501A60195010E9483B69B013C
:1036D000AC01C801B7010E9487B40E94F0B61F91E7
:1036E0000F91FF90EF90DF90CF90BF90AF90089533
:1036F0002F923F924F925F926F927F928F929F9202
:10370000AF92BF92CF92DF92EF92FF920F931F93EF
:10371000DF93CF9300D00F92CDB7DEB769837A8362
:103720008B839C8359016A0117012801611571057A
:103730008105910559F40F2EF0E0EF2EF0E0FF2EF9
:10374000F0E00F2FF0E01F2FF02DA4C0CA01B90147
:103750000E9483B67B018C01C601B50120E030E0F8
:1037600040E050E00E94EBB4882324F417FB10954E
:1037700017F91095C201B101A20191010E9487B40D
:103780003B014C01C801B701A40193010E94F2B4AE
:103790007B018C0169817A818B819C810E948DB52E
:1037A0009B01AC01C801B7010E94EBB48823B4F5BA
:1037B000C601B50120E030E040E050E00E94EBB4EB
:1037C000882329F4C401B3010E94F0B60DC0C201E0
:1037D000B101A60195010E94F2B49B01AC015F7793
:1037E000C601B5010E9487B47B018C01D090F20E16
:1037F000C090F30EB090F40EA090F50E2D2D3C2D40
:103800004B2D5A2D0E947FB618160CF043C08D2DFB
:103810009C2DAB2DBA2D7C018D013CC0C601B5019C
:1038200020E030E040E050E00E94EBB4882359F4FF
:10383000C401B3010E94F0B67B018C0117FB109507
:1038400017F910950FC0C201B101A60195010E94A0
:10385000F2B49B01AC015F77C601B5010E9486B44A
:103860007B018C018091F20E9091F30EA091F40EE9
:10387000B091F50E5C016D01D7FAD094D7F8D094D1
:10388000C801B701A60195010E94EBB4882314F486
:1038900086017501B701C8010F900F900F900F902E
:1038A000CF91DF911F910F91FF90EF90DF90CF901C
:1038B000BF90AF909F908F907F906F905F904F9050
:1038C0003F902F9008958091FD0E882309F43FC00A
:1038D00085ED97E16BE871E10E9453B087EB90E1D1
:1038E0000E948E652091F00E3091F10E442737FD35
:1038F0004095542F0E94FBB785ED97E1BA01A901CD
:103900002AE030E00E9420AF85ED97E169E971E19E
:103910000E9453B084EE90E10E948E652091F00EDB
:103920003091F10E442737FD4095542F0E94FBB78C
:1039300085ED97E1BA01A9012AE030E00E9420AFAD
:1039400085ED97E160EA71E10E9485B097CD089519
:10395000EF92FF920F931F938091B50F9091B60F46
:10396000A091B70FB091B80F0097A105B10509F06C
:103970003FC06091AD0F7091AE0F8091AF0F9091ED
:10398000B00F0E948DB57B018C016091B10F7091D9
:10399000B20F8091B30F9091B40F0E948DB59B012F
:1039A000AC01C801B7017BDE20E030E040E05FE31E
:1039B0000E9487B40E945AB56093B50F7093B60FFA
:1039C0008093B70F9093B80F85ED97E165E273E0B0
:1039D0000E949FAF4091B50F5091B60F6091B70F05
:1039E0007091B80F85ED97E12AE030E00E945EAF5C
:1039F0006091B50F7091B60F8091B70F9091B80F8D
:103A00001F910F91FF90EF90089585ED97E16CE382
:103A100073E00C9442B085ED97E168E272E00E9499
:103A20004CAE10923A1008958F929F92AF92BF922F
:103A3000CF92DF92EF92FF920F931F936C017B0165
:103A400085ED97E163E573E00E949FAF85ED97E117
:103A5000B6014AE050E00E9470AF85ED97E16CE559
:103A600073E00E949FAF85ED97E1B7014AE050E017
:103A70000E9482AF85ED97E161E673E00E949FAFFF
:103A80006091AE107091AF1085ED97E14AE050E083
:103A90000E9482AF85ED97E161E773E00E949FAFDE
:103AA0004091A4105091A5106091A6107091A7109C
:103AB00085ED97E12AE030E00E945EAF4601AA243E
:103AC00097FCA094BA2C8091AE109091AF10AA27C9
:103AD00097FDA095BA2F880E991EAA1EBB1E00271F
:103AE000F7FC0095102F2091A4103091A510409163
:103AF000A6105091A710C801B7010E9487B7860E83
:103B0000971EA81EB91E85ED97E16BE773E00E9432
:103B10009FAF85ED97E1B501A4012AE030E00E9456
:103B200020AF8091B0109091B110A091B210B091DF
:103B3000B31088159905AA05BB0514F41FEF18C02A
:103B400089E890E1B501A4010E94F06D89E890E157
:103B50000E94006E182F85ED97E164E873E00E94E3
:103B60009FAF85ED97E1612F4AE050E00E9404AFDE
:103B7000812F1F910F91FF90EF90DF90CF90BF901A
:103B8000AF909F908F9008950F931F93CF93DF93E3
:103B9000EC018B0185ED97E163E973E00E949FAF33
:103BA00085ED97E1BE014AE050E00E9470AF85EDDF
:103BB00097E166E973E00E949FAF85ED97E1B80158
:103BC0004AE050E00E9482AF8091111190E0C81746
:103BD000D9079CF08091131190E08C179D076CF031
:103BE0008091121190E0081719073CF08091141190
:103BF00090E0801791070CF083C08091151190E040
:103C0000C817D907A4F08091171190E08C179D0771
:103C100074F08091161190E00817190744F0809114
:103C2000141190E08017910714F082E06AC080912F
:103C3000191190E0C817D907A4F080911B1190E0EA
:103C40008C179D0774F080911A1190E008171907DE
:103C500044F080911C1190E08017910714F083E0EC
:103C600050C080911D1190E0C817D907A4F0809131
:103C70001F1190E08C179D0774F080911E1190E049
:103C80000817190744F08091201190E080179107E0
:103C900014F084E036C08091211190E0C817D90754
:103CA000A4F08091231190E08C179D0774F080910F
:103CB000221190E00817190744F08091241190E038
:103CC0008017910714F085E01CC08091251190E0C9
:103CD000C817D907A4F08091271190E08C179D0791
:103CE00074F08091261190E00817190744F0809134
:103CF000281190E08017910714F086E002C001C0FF
:103D000081E0DF91CF911F910F9108956F927F9283
:103D10008F929F92AF92BF92CF92DF92EF92FF92DB
:103D20000F931F93DF93CF93CDB7DEB7A3970FB653
:103D3000F894DEBF0FBECDBF6DB67EB689E890E1C8
:103D400040E050E060E070E00E94F06D7E01089479
:103D5000E11CF11CC7016BE973E00E94BCB389E868
:103D600090E10E94006E182FC70160E070E00E9491
:103D70002DB1FC01108389E890E10E94006E182F9C
:103D8000C70161E070E00E942DB1FC011083C70102
:103D90006EE973E00E9455B2882399F485ED97E1AE
:103DA00061EA73E00E949FAF85ED97E1B7010E9441
:103DB00053B085ED97E16FEB73E00E9442B010E0E5
:103DC00083C185ED97E16AED73E00E9442B089E816
:103DD00090E10E94006E8E01085F1F4FC80166E0EF
:103DE00072E00E94BCB389E890E10E94006EE82E68
:103DF0008FE0C82ED12CCC0EDD1EF02E012F21C05D
:103E000083E2E81641F489E890E10E94006EE82E12
:103E10009AE0E916C1F7C6016F2D702F0E9473B4A6
:103E2000C6016E2D0E947AB3BC018F2D902F0E9487
:103E300055B4C6010E9481B489E890E10E94006EE9
:103E4000E82E8AE0E81619F090E2E916C9F685ED49
:103E500097E160E074E00E949FAF18E0E12EF12C42
:103E6000EC0EFD1E85ED97E1B7010E9485B04C85F3
:103E70005D854F5F5F4F8DB79EB7841B950B0FB667
:103E8000F8949EBF0FBE8DBF0DB71EB70F5F1F4FBB
:103E9000902E812EB02EA12EC701B80120E030E077
:103EA0000E9406B2C8010E949111AA2797FDA09511
:103EB000BA2F8093A4109093A510A093A610B0934E
:103EC000A7100A97A105B10544F485ED97E160EDCF
:103ED00071E00E944CAE10E0F3C0C70166E072E0F2
:103EE0000E94EEB389E890E10E94006E182FB6E1BF
:103EF000CB2ED12CCC0EDD1EC701FE2C092F1FC0EE
:103F0000133239F489E890E10E94006E182F8A304C
:103F1000C9F7C6016F2D702F0E9473B4C601612FBF
:103F20000E947AB3BC018F2D902F0E9455B4C60118
:103F30000E9481B489E890E10E94006E182F1A3027
:103F4000F9F685ED97E16BE074E00E949FAFA8E081
:103F5000CA2ED12CCC0EDD1E85ED97E1B6010E9454
:103F600085B04C855D854F5F5F4FC6016B2D7A2D07
:103F700020E030E00E9406B2892D982D0E94911118
:103F8000AA2797FDA095BA2F8093A8109093A91007
:103F9000A093AA10B093AB10BC01CD010E948DB5C7
:103FA0007B018C016091A4107091A5108091A610E6
:103FB0009091A7100E948DB59B01AC01C801B7017B
:103FC0000E94F2B460932A0F70932B0F80932C0FF2
:103FD00090932D0F85ED97E167E174E00E949FAF0C
:103FE00040912A0F50912B0F60912C0F70912D0F43
:103FF00085ED97E122E030E00E9431B0C60166E035
:1040000072E00E94EEB389E890E10E94006E182FE2
:104010000D2DFDE1EF2EF12CEC0EFD1E16C0C7019B
:104020006C2D702F0E9473B4C701612F0E947AB368
:10403000BC018C2D902F0E9455B4C7010E9481B401
:1040400089E890E10E94006E182F1A3041F785ED43
:1040500097E169E274E00E949FAF85ED97E16C2DD6
:10406000702F0E9485B04C855D854F5F5F4F8C2D12
:10407000902F6B2D7A2D20E030E00E9406B2892D22
:10408000982D0E9491119093AD108093AC1089E807
:1040900090E10E94AB6D7093AF106093AE1085ED10
:1040A00097E16DE374E00E949FAF6091AE10709154
:1040B000AF1085ED97E14AE050E00E9482AF11E039
:1040C000CE0108960E947CB4CE0101960E947CB479
:1040D000812F0FB6F8947EBE0FBE6DBEA3960FB6AD
:1040E000F894DEBF0FBECDBFCF91DF911F910F912E
:1040F000FF90EF90DF90CF90BF90AF909F908F9008
:104100007F906F900895EF92FF920F931F93DF932C
:10411000CF93CDB7DEB7FC01EDB6FEB64481558135
:104120004F5F5F4F8DB79EB7841B950B0FB6F8940A
:104130009EBF0FBE8DBF0DB71EB70F5F1F4FCF01C4
:10414000B80120E030E00E9406B2C8010E9491113F
:104150000FB6F894FEBE0FBEEDBECF91DF911F915A
:104160000F91FF90EF900895EF92FF920F931F939E
:10417000DF93CF93CDB7DEB727970FB6F894DEBFA6
:104180000FBECDBF8E010F5F1F4FC80163E571E108
:104190000E946AB4C801B7DF7C01C8010E947CB4E8
:1041A000EF2819F4109230100EC080913810882337
:1041B00021F081E08093301006C085ED97E16BE43B
:1041C00074E00E9442B027960FB6F894DEBF0FBE8F
:1041D000CDBFCF91DF911F910F91FF90EF90089588
:1041E000EF92FF920F931F93DF93CF93CDB7DEB77C
:1041F0006B970FB6F894DEBF0FBECDBFFC01EDB6D6
:10420000FEB6448155814F5F5F4F8DB79EB7841BCB
:10421000950B0FB6F8949EBF0FBE8DBF0DB71EB79E
:104220000F5F1F4FCF01B80120E030E00E9406B2BF
:10423000CE0101966AE473E1A80121E00E94F970C1
:104240008B819C8190938C1080938B108D819E81AB
:10425000AF81B88580938D1090938E10A0938F10AE
:10426000B093901089859A85AB85BC858093911019
:1042700090939210A0939310B0939410A5E9B0E19D
:10428000FE013D968DE001900D928150E1F78A8DFF
:104290009B8D9093A3108093A210CE0101960E9453
:1042A000696D89E890E10E94D16D882329F485ED3C
:1042B00097E16FE674E007C029DD882341F485EDBE
:1042C00097E160E874E00E9442B080E00DC089E8A8
:1042D00090E10E94BE6D6093B0107093B110809316
:1042E000B2109093B31081E00FB6F894FEBE0FBEEB
:1042F000EDBE6B960FB6F894DEBF0FBECDBFCF916B
:10430000DF911F910F91FF90EF900895AF92BF92B0
:10431000CF92DF92EF92FF920F931F93DF93CF9391
:10432000CDB7DEB76B970FB6F894DEBF0FBECDBF2B
:104330006C01ADB6BEB640913F10509140104F5F3A
:104340005F4F8DB79EB7841B950B0FB6F8949EBF39
:104350000FBE8DBF0DB71EB70F5F1F4F8BE390E1F0
:10436000B80120E030E00E9406B27E010894E11C12
:10437000F11CC7016AE473E1A80123E10E94F9700E
:10438000C7010E94D16D8823D1F085ED97E168E8DF
:1043900074E00E949FAF85ED97E16BE370E10E94AE
:1043A00085B0C701B6010E9485B0C7010E94DE6DCD
:1043B00085ED97E169E974E00E9442B00CC085ED9B
:1043C00097E16FE974E00E949FAF85ED97E16BE3A1
:1043D00070E10E9485B0CE0101960E94696D0FB612
:1043E000F894BEBE0FBEADBE6B960FB6F894DEBF9E
:1043F0000FBECDBFCF91DF911F910F91FF90EF9036
:10440000DF90CF90BF90AF900895EF92FF920F93FF
:104410001F9385E361E00E9448A88AE493E165E385
:104420000E941972882329F485ED97E16EEA74E001
:104430006AC085ED97E16AEC74E00E9442B085EDB8
:1044400097E16CED74E00E9442B082E490E161E09B
:1044500045E30E946F748823B9F485ED97E164EF1A
:1044600074E00E9442B085ED97E16CE175E00E9436
:1044700042B085ED97E165E375E00E9442B085EDBD
:1044800097E16FE475E03FC085ED97E163E975E082
:104490000E9442B085ED97E16CEB75E00E949FAF02
:1044A00080914D10823049F0833061F0813079F491
:1044B00085ED97E169EC75E00EC085ED97E16DEC57
:1044C00075E009C085ED97E161ED75E004C085ED0B
:1044D00097E166ED75E00E9442B08EE490E162E4FF
:1044E00070E141E00E94997F882381F48EE490E19D
:1044F00062E470E140E00E94997F882339F485ED01
:1045000097E16EED75E00E9442B074C085ED97E1D1
:1045100068E276E00E949FAF85ED97E160916510BB
:104520004AE050E00E9404AF85ED97E10E942CAE76
:104530002091521030E040E050E0609157107091AF
:1045400058108091591090915A10E9E0660F771F2A
:10455000881F991FEA95D1F70E9487B77B018C01CC
:1045600085ED97E16CE376E00E949FAF85ED97E1E2
:10457000B801A7012AE030E00E94E2AE85ED97E1A4
:1045800062E576E00E949FAF2AE016950795F794C2
:10459000E7942A95D1F785ED97E1B801A7012AE0C4
:1045A00030E00E94E2AE85ED97E169E676E00E9498
:1045B0009FAF9AE016950795F794E7949A95D1F7EF
:1045C00085ED97E1B801A7012AE030E00E94E2AE54
:1045D00085ED97E160E876E00E9442B08CE690E1DC
:1045E0006EE470E10E94AE798CE690E167E040E015
:1045F0000E94A87A1F910F91FF90EF900895AF92BB
:10460000BF92CF92DF92EF92FF920F931F9387EBAF
:1046100090E10E94F66984EE90E10E94F66987EBD2
:1046200090E10E947E65611571058105910509F093
:1046300048C060910E0F70910F0F8091100F9091F4
:10464000110F2091160F3091170F4091180F5091B4
:10465000190F260F371F481F591F0E94FFB05B011B
:104660006C016091120F7091130F8091140F909153
:10467000150F20911A0F30911B0F40911C0F509174
:104680001D0F260F371F481F591F0E94FFB07B01C7
:104690008C01C601B5010E948DB55B016C01C8019A
:1046A000B7010E948DB59B01AC01C601B5010E9406
:1046B0004F1B0E945AB5AB01BC0187EB90E10E94F1
:1046C0002A6684EE90E10E947E6561157105810580
:1046D000910509F048C060910E0F70910F0F809105
:1046E000100F9091110F2091160F3091170F4091DC
:1046F000180F5091190F260F371F481F591F0E947E
:10470000FFB05B016C016091120F7091130F8091EB
:10471000140F9091150F20911A0F30911B0F40919B
:104720001C0F50911D0F260F371F481F591F0E9445
:10473000FFB07B018C01C601B5010E948DB55B0104
:104740006C01C801B7010E948DB59B01AC01C60187
:10475000B5010E94181B0E945AB5AB01BC0184EE42
:1047600090E10E942A661F910F91FF90EF90DF90D9
:10477000CF90BF90AF900895EF92FF920F931F9349
:10478000CF93DF93C0E0D0E085ED97E16AEB76E070
:104790000E949FAF85ED97E1BE014AE050E00E9484
:1047A00082AF87EB90E10E947E65611571058105FE
:1047B000910509F468C084EE90E10E947E65611560
:1047C00071058105910509F45EC087EB90E10E94B7
:1047D000F66984EE90E10E94F669E3CF6EEF7FEF19
:1047E0008FEF9FEF23E030E040E050E00E94FFB009
:1047F0007B018C01A701662757FD6095762F87EB1B
:1048000090E10E94306685ED97E163EC76E00E94CE
:104810009FAF85ED97E1B7014AE050E00E9482AF7B
:1048200084EE90E10E947E65611571058105910518
:1048300011F56EEF7FEF8FEF9FEF23E030E040E068
:1048400050E00E94FFB07B018C01A701662757FD55
:104850006095762F84EE90E10E94306685ED97E1B9
:1048600069ED76E00E949FAF85ED97E1B7014AE0E0
:1048700050E00E9482AF27D8219683E0C83ED80737
:1048800009F082CF0AC087EB90E10E947E65611536
:1048900071058105910521F6A1CFDF91CF911F917F
:1048A0000F91FF90EF900895CF93DF938BE99FE0F6
:1048B00069E070E00E94C76BC4EBD0E08BE99FE039
:1048C000BE010E94B06A63E070E080E090E00E9468
:1048D00083A72197CA35D10589F78BE99FE00E940C
:1048E000446A1092E90EDF91CF9108958091E90E0C
:1048F000813009F4D9CF0895CF93DF938BE99FE0FE
:1049000069E070E00E94C76BCAE5D0E08BE99FE0E8
:10491000BE010E94B06A63E070E080E090E00E9417
:1049200083A72196C43BD10589F78BE99FE00E94BC
:10493000446A81E08093E90EDF91CF9108958091E0
:10494000E90E882309F4D8CF0895EF92FF920F93D0
:104950001F93182F05EDE02E0FE0F02EC70162E344
:1049600044EB22E30E948487212F30E081E191E132
:10497000F901EE0FFF1FE80FF91F608141812F5FE2
:104980003F4FF901EE0FFF1FE80FF91F2081018152
:10499000C70170E050E030E010E00E943F88C7019E
:1049A00062E344EB22E30E948987C7016FEF4FEF78
:1049B0002FEF0E9484871F910F91FF90EF90089531
:1049C0008F929F92AF92BF92CF92DF92EF92FF921F
:1049D0000F931F93DF93CF93CDB7DEB727970FB613
:1049E000F894DEBF0FBECDBF4C0195EDC92E9FE000
:1049F000D92EC60160E040E020E00E94848740910B
:104A0000141150E081E1A82E81E1B82EF5016081FA
:104A10008A01085E1F4FC60170E0465F5F4F2CEDB4
:104A200030E00E943F88C6016FEF4FEF2FEF0E94EA
:104A30008487C60160E040E020E00E9489877E0113
:104A40000894E11CF11CC701B4010E946AB4F5018D
:104A500040812091141130E0265F3F4FC601B7011D
:104A600050E000E010E00E942F8FC7010E947CB44C
:104A700027960FB6F894DEBF0FBECDBFCF91DF9162
:104A80001F910F91FF90EF90DF90CF90BF90AF906C
:104A90009F908F9008952F923F924F925F926F92C6
:104AA0007F928F929F92AF92BF92CF92DF92EF92BE
:104AB000FF920F931F93DF93CF93CDB7DEB7E097AD
:104AC0000FB6F894DEBF0FBECDBF4C015B0158ABF3
:104AD0004FA785ED97E16FEE76E00E949FAF85EDE1
:104AE00097E1B5010E9485B085ED97E16AE077E036
:104AF0000E9442B0109272101092731010927410B3
:104B00001092751010927610109277101092781003
:104B1000109279108E010F5F1F4FC8016CE177E092
:104B20000E94BCB3C50166E072E00E9455B28823C2
:104B300041F4C501B8010E94ABB2882311F4772477
:104B40006CC07724739469C08F85882309F47DC075
:104B5000853E09F472C08E3209F46FC08A8D83FDE0
:104B60006CC0C6016CE177E00E94BCB3710100E04B
:104B700010E0D7018C918032C9F0083041F4C601B1
:104B800068E070E00E942DB1FC01608202C0083034
:104B900028F0B8016F5F7F4FC60102C0C601B8019F
:104BA0000E942DB1FC01D7018C9180830F5F1F4FB4
:104BB0000894E11CF11C0B301105D9F6EFA5F8A9FA
:104BC0001E161F069CF4772041F085ED97E1B60193
:104BD0000E9485B0C401B60111C0C601B5010E9492
:104BE000ABB28823B1F07724739413C0C601B5012A
:104BF0000E94ABB2882349F0C401B2010E946AB49A
:104C0000CE0108960E947CB424C0C201B6010E9465
:104C100055B4C6010E947CB410C04FE0242E312C44
:104C20002C0E3D1E38E0C32ED12CCC0EDD1E2EE204
:104C3000622E2E010894411C511C8CE690E1B101BA
:104C40000E94D07818160CF47FCFC401B5010E94E1
:104C50006AB4CE0101960E947CB4C401E0960FB6FE
:104C6000F894DEBF0FBECDBFCF91DF911F910F91A2
:104C7000FF90EF90DF90CF90BF90AF909F908F907C
:104C80007F906F905F904F903F902F900895EF929C
:104C9000FF920F931F93DF93CF93CDB7DEB7279784
:104CA0000FB6F894DEBF0FBECDBF85ED9FE060E08C
:104CB00040E020E00E9484874091141150E0609110
:104CC00011118A01085E1F4F85ED9FE070E0465F7D
:104CD0005F4F2CED30E00E943F8885ED9FE06FEF45
:104CE0004FEF2FEF0E94848785ED9FE060E040E06A
:104CF00020E00E9489878BE390E166E072E00E94E9
:104D000055B2882341F48BE390E16CE177E00E9497
:104D100055B2882389F0409111112091141130E08F
:104D2000265F3F4F85ED9FE069E277E050E000E0CD
:104D300010E00E94E48B1BC07E010894E11CF11C72
:104D4000C7016BE370E10E946AB440911111209198
:104D5000141130E0265F3F4F85ED9FE0B70150E032
:104D600000E010E00E942F8FC7010E947CB42796BC
:104D70000FB6F894DEBF0FBECDBFCF91DF911F916C
:104D80000F91FF90EF9008950F931F9390E0FC0117
:104D90003197E432F10508F0A7C5EE58FF4FEE0F4A
:104DA000FF1F0590F491E02D199480E0CEDD8091F5
:104DB000390F869590E04091111150E04A505040D3
:104DC000480F591F2091121130E02C503040280F0D
:104DD000391F85ED9FE06EE277E000E010E00E9471
:104DE000E48B2091390F269530E04091111150E06D
:104DF0004E505040420F531F80911211280F311D09
:104E000085ED9FE062E377E06DC580E09EDD8091F7
:104E1000390F869590E04091111150E04651504075
:104E2000480F591F2091121130E02C503040280FAC
:104E3000391F85ED9FE067E377E000E010E00E9416
:104E4000E48B2091390F269530E04091111150E00C
:104E500046505040420F531F80911211280F311DB0
:104E600085ED9FE06EE377E03DC580E06EDD8091EB
:104E7000390F869590E04091111150E04651504015
:104E8000480F591F2091121130E02C503040280F4C
:104E9000391F85ED9FE067E377E000E010E00E94B6
:104EA000E48B2091390F269530E04091111150E0AC
:104EB0004A505040420F531F80911211280F311D4C
:104EC00085ED9FE061E477E00DC582E03EDD8091F5
:104ED000390F869590E04091151150E04E505040AA
:104EE000480F591F2091161130E022513040280FF1
:104EF000391F85ED9FE065E477E000E010E00E9457
:104F0000E48B8091390F869590E04091151150E027
:104F10004E505040480F591F2091161130E0265036
:104F20003040280F391F85ED9FE06AE477E00E944A
:104F3000E48B8091390F869590E04091151150E0F7
:104F400046505040480F591F2091161130E02A5FFB
:104F50003F4F280F391F85ED9FE06FE477E0C2C413
:104F600084E0F3DC8091390F869590E0409119112F
:104F700050E04E505040480F591F20911A1130E018
:104F800026503040280F391F85ED9FE062E577E01D
:104F900048C384E0DADC8091390F869590E0409137
:104FA000191150E042515040480F591F20911A11D9
:104FB00030E02C503040280F391F85ED9FE067E529
:104FC00077E000E010E00E94E48B2091390F2695F5
:104FD00030E04091191150E042515040420F531FB0
:104FE00080911A11280F311D85ED9FE06DE577E066
:104FF00079C486E0AADC8091390F869590E04091D3
:105000001D1150E042515040480F591F20911E1170
:1050100030E026503040280F391F85ED9FE063E6D1
:1050200077E0FFC286E091DC8091390F869590E0B1
:1050300040911D1150E046515040480F591F20919A
:105040001E1130E026503040280F391F85ED9FE0BB
:1050500069E677E0E6C284E078DC8091390F8695D6
:1050600090E04091191150E042515040480F591FB3
:1050700020911A1130E026503040280F391F85ED5D
:105080009FE060E777E0CDC288E05FDC8091390F78
:10509000869590E04091211150E04A505040480FD1
:1050A000591F2091221130E02C503040280F391F19
:1050B00085ED9FE066E777E000E010E00E94E48B7A
:1050C0002091390F269530E04091211150E0465053
:1050D0005040420F531F80912211280F311D85ED42
:1050E0009FE06AE777E0FEC388E02FDC8091390F0C
:1050F000869590E04091211150E04A505040480F71
:10510000591F2091221130E02C503040280F391FB8
:1051100085ED9FE066E777E000E010E00E94E48B19
:105120002091390F269530E04091211150E04E50EA
:105130005040420F531F80912211280F311D85EDE1
:105140009FE06DE777E0CEC382E0FFDB8091390F0F
:10515000869590E04091151150E04C505040480F1A
:10516000591F2091161130E02C503040280F391F64
:1051700085ED9FE062E877E000E010E00E94E48BBC
:105180002091390F269530E04091151150E04C5098
:105190005040420F531F8091161129C088E0D5DB83
:1051A0008091390F869590E04091211150E04C504C
:1051B0005040480F591F2091221130E02C503040B0
:1051C000280F391F85ED9FE06CE877E000E010E0E4
:1051D0000E94E48B2091390F269530E040912111F7
:1051E00050E04C505040420F531F80912211280F25
:1051F000311D78C086E0A9DB8091390F869590E05B
:1052000040911D1150E04E505040480F591F2091C1
:105210001E1130E026503040280F391F85ED9FE0E9
:1052200061E977E0FEC18AE090DB8091390F8695D5
:1052300090E04091251150E04E505040480F591FCA
:105240002091261130E022513040280F391F85ED82
:105250009FE065E477E018C08AE077DB8091390F42
:10526000869590E04091251150E04E505040480FF7
:10527000591F2091261130E022513040280F391F4C
:1052800085ED9FE06BE977E000E010E00E94E48BA1
:105290008091390F869590E04091251150E04E5055
:1052A0005040480F591F2091261130E026503040C1
:1052B000280F391F85ED9FE066E977E00E94E48BB7
:1052C0008091390F869590E04091251150E04E5025
:1052D0005040480F591F2091261130E02A5F3F4F60
:1052E000280F391F85ED9FE067E877E0FBC28AE071
:1052F0002CDB8091390F869590E04091251150E08C
:105300004E505040480F591F2091261130E02C502C
:105310003040280F391F85ED9FE062E577E000E01F
:1053200010E00E94E48B2091390F269530E04091E7
:10533000251150E04A505040420F531F80912611D2
:10534000280F311D85ED9FE060EA77E0CBC282E057
:10535000FCDA8091390F869590E04091151150E06C
:105360004A505040480F591F2091161130E02C50E0
:105370003040280F391F85ED9FE064EA77E000E0B8
:1053800010E00E94E48B2091390F269530E0409187
:10539000151150E042515040420F531F8091161199
:1053A000B7C188E0D2DA8091390F869590E04091BC
:1053B000211150E04A505040480F591F20912211AE
:1053C00030E02C503040280F391F85ED9FE06EEA09
:1053D00077E08DC184E0B9DA8091390F869590E04D
:1053E0004091191150E04A505040480F591F2091E8
:1053F0001A1130E02C503040280F391F85ED9FE006
:1054000064EA77E000E010E00E94E48B2091390F1D
:10541000269530E04091191150E042515040420F22
:10542000531F80911A1129C08AE08FDA8091390FB9
:10543000869590E04091251150E04A505040480F29
:10544000591F2091261130E02C503040280F391F71
:1054500085ED9FE06EEA77E000E010E00E94E48BCB
:105460002091390F269530E04091251150E04251AE
:105470005040420F531F80912611280F311D85ED9A
:105480009FE062EB77E02EC282E05FDA8091390F15
:10549000869590E04091151150E04A505040480FD9
:1054A000591F2091161130E02C503040280F391F21
:1054B00085ED9FE064EA77E000E010E00E94E48B75
:1054C0002091390F269530E04091151150E0405160
:1054D0005040420F531F8091161129C088E035DAE1
:1054E0008091390F869590E04091211150E04A500B
:1054F0005040480F591F2091221130E02C5030406D
:10550000280F391F85ED9FE06EEA77E000E010E09C
:105510000E94E48B2091390F269530E040912111B3
:1055200050E040515040420F531F80912211280FEC
:10553000311D85ED9FE068EB77E0D4C184E005DAAA
:105540008091390F869590E04091191150E04A50B2
:105550005040480F591F20911A1130E0225130401D
:10556000280F391F85ED9FE064EA77E075C08AE077
:10557000ECD98091390F869590E04091251150E04B
:105580004A505040480F591F2091261130E02251B7
:105590003040280F391F85ED9FE06EEA77E000E08C
:1055A00010E00E94E48B8091390F869590E0409145
:1055B000251150E04A505040480F591F20912611A4
:1055C00030E026503040280F391F85ED9FE066E718
:1055D00077E00E94E48B8091390F869590E04091AE
:1055E000251150E04E505040480F591F2091261170
:1055F0005CC086E0AAD98091390F869590E04091F1
:105600001D1150E042515040480F591F20911E116A
:1056100030E026503040280F391F85ED9FE062ECC6
:1056200077E000E010E05EC184E08FD98091390F0F
:10563000869590E04091191150E04A505040480F33
:10564000591F20911A1130E022513040280F391F84
:1056500085ED9FE067EC77E000E010E00E94E48BCE
:105660008091390F869590E04091191150E04A5091
:105670005040480F591F20911A1130E026503040F9
:10568000280F391F85ED9FE066E777E00E94E48BE5
:105690008091390F869590E04091191150E04E505D
:1056A0005040480F591F20911A1130E02A5F3F4F98
:1056B000280F391F85ED9FE06DEB77E013C188E07F
:1056C00044D98091390F869590E04091211150E0A6
:1056D0004A505040480F591F2091221130E02C5061
:1056E0003040280F391F85ED9FE067EC77E000E040
:1056F00010E00E94E48B2091390F269530E0409114
:10570000211150E042515040420F531F809122110D
:10571000280F311D85ED9FE068EA77E0E3C082E065
:1057200014D98091390F869590E04091151150E081
:105730004A505040480F591F2091161130E02C500C
:105740003040280F391F85ED9FE067EC77E000E0DF
:1057500010E00E94E48B2091390F269530E04091B3
:10576000151150E04A505040420F531F80911611BE
:10577000280F311D85ED9FE06BEC77E0B3C082E030
:10578000E4D88091390F869590E04091151150E052
:105790004A505040480F591F2091161130E02C50AC
:1057A0003040280F391F85ED9FE064EA77E000E084
:1057B00010E00E94E48B2091390F269530E0409153
:1057C000151150E04A505040420F531F809116115E
:1057D00029C088E0BAD88091390F869590E0409131
:1057E000211150E04A505040480F591F209122117A
:1057F00030E02C503040280F391F85ED9FE06EEAD5
:1058000077E000E010E00E94E48B2091390F2695AC
:1058100030E04091211150E04A505040420F531F58
:1058200080912211280F311D85ED9FE06FEC77E00C
:1058300059C084E08AD88091390F869590E04091D4
:10584000191150E04A505040480F591F20911A1129
:1058500030E02C503040280F391F85ED9FE064EA7E
:1058600077E000E010E00E94E48B2091390F26954C
:1058700030E04091191150E04A505040420F531F00
:1058800080911A1129C08AE060D88091390F8695DD
:1058900090E04091251150E04A505040480F591F68
:1058A0002091261130E02C503040280F391F85ED13
:1058B0009FE06EEA77E000E010E00E94E48B209128
:1058C000390F269530E04091251150E04A50504064
:1058D000420F531F80912611280F311D85ED9FE047
:1058E00063ED77E00E94E48B1F910F9108956F9212
:1058F0007F928F929F92AF92BF92CF92DF92EF9260
:10590000FF920F931F936C015B0139014A01F5ED82
:10591000EF2EFFE0FF2EC70160E040E020E00E9494
:1059200084878091390F9601280F311D85010C5E07
:105930001F4FC701B601A5010E943F88C7016FEF45
:105940004FEF2FEF0E948487C70160E040E020E026
:105950000E948987C701B401A30196018501EE2445
:10596000FF24E0E2CE2E0E944A8E1F910F91FF90FD
:10597000EF90DF90CF90BF90AF909F908F907F90EF
:105980006F9008956F927F928F929F92AF92BF9285
:10599000CF92DF92EF92FF920F931F936C015B0106
:1059A00039014A0115EDE12E1FE0F12EC70160E03B
:1059B00040E020E00E9484878091390F9601280FF3
:1059C000311D85010C5E1F4FC701B601A5010E9464
:1059D0003F88C7016FEF4FEF2FEF0E948487C70109
:1059E00060E040E020E00E948987C701B401A30184
:1059F00022E086017501BEE2CB2EAA24BB24A0E2E0
:105A00008A2E0E94B18C1F910F91FF90EF90DF9032
:105A1000CF90BF90AF909F908F907F906F900895A0
:105A20001F9385ED9FE062E344EB22E30E948987A8
:105A300085ED9FE060E040E020E00E948487809157
:105A40003B0F8130E1F48091B510882311F081E2A1
:105A500001C080E299D982E097D98091E90E88232C
:105A600011F088E001C087E08FD98091FE0E882375
:105A700011F084E001C085E087D983E2B1C0809154
:105A80003B0F823061F48DE17FD98EE17DD9809129
:105A9000FE0E882311F084E0A3C085E0A1C08091B0
:105AA0003B0F833081F48BE06FD98CE06DD980910E
:105AB000B410882311F082E201C080E165D98FE043
:105AC00063D9E5D88EC080913B0F863051F589E0CF
:105AD0005BD98AE059D982E157D983E155D984E16C
